:020000040800F2
:1000000000200020B90000083D3B0008513B0008DB
:1000100000000000000000000000000000000000E0
:100020000000000000000000000000003D3B000850
:1000300000000000000000003D3B0008E100000857
:100040003D3B00083D3B00083D3B00083D3B0008B0
:100050003D3B00083D3B00083D3B00083D3B0008A0
:10006000000000003D3B00083D3B00083D3B000810
:100070003D3B00083D3B000800000000E103000894
:10008000000000003D3B00080000000000000000F0
:100090003D3B0008000000003D3B00083D3B0008E0
:1000A0003D3B00083D3B00083D3B0008C93D0008C2
:1000B0003D3B00083D3B000803F0BCFC03F07EFC28
:1000C000E1235B02180003F0D7FD62B6C04602F0E0
:1000D000D3F8024B180003F03FFFFEE7309B000807
:1000E00080B500AF034B1B685A1C024B1A60C04618
:1000F000BD4680BDD801002080B500AF024B1B6813
:100100001800BD4680BDC046D801002080B584B02F
:1001100000AF78600023FB6002E0FB680133FB6006
:100120007A6813009B009B189A009B181B021A0008
:10013000FB689A42F1DCC046C046BD4604B080BDB3
:1001400080B500AF2A4BDA6A294B01210A43DA62F3
:10015000274B5A6B264B8021C9010A435A63A023BF
:10016000DB051A68A023DB0522490A401A60A02398
:10017000DB051A68A023DB05A02189030A431A6066
:10018000A023DB05DA68A023DB051A490A40DA6000
:10019000A023DB05DA68A023DB05A02149030A437D
:1001A000DA60A023DB055A6AA023DB0512490A4066
:1001B0005A62A023DB055A6AA023DB058821C90007
:1001C0000A435A620D4B00221A600C4B00225A60FF
:1001D0000A4B00229A60094B1622FF32DA60074B65
:1001E0001A68064B0D210A431A60C046BD4680BD01
:1001F00000100240FFFFC3FF0FF0FFFF0038014077
:1002000080B582B000AF0B4BDB690F2213400CD0DE
:10021000084B0F221A6203E0064B5B6A7B607B6827
:10022000044BDB6920221340F6D1C046BD4602B024
:1002300080BDC0460038014080B500AF044BDB698B
:10024000202213409B06DB0FDBB21800BD4680BDA9
:100250000038014080B500AF024B5B6ADBB218008A
:10026000BD4680BD0038014080B582B000AF0200BD
:10027000FB1D1A70FB1D1B780D2B0BD0FB1D1B7873
:100280000A2B07D0FB1D1B78202B03D0FB1D1B78EE
:10029000092B01D1012300E000231800BD4602B064
:1002A00080BD80B500AF184BDA6A174B01210A43B5
:1002B000DA62A023DB051A68A023DB0513490A4094
:1002C0001A60A023DB051A68A023DB0510490A4346
:1002D0001A60A023DB055A68A023DB050D490A40FC
:1002E0005A60A023DB05DA68A023DB0507490A4032
:1002F000DA60A023DB055A69A023DB0505490A4023
:100300005A61C046BD4680BD00100240FF3FFCC39D
:10031000004001147F9EFFFF80B500AF2D4BDA6ACD
:100320002C4B01210A43DA622A4B9A6B294B01219B
:100330000A439A63A023DB051B689B009A08A0234D
:10034000DB05802109060A431A60A023DB055A6AEF
:10035000A023DB05A021C9050A435A62A023DB05BF
:10036000DA68A023DB0592009208DA608023DB05BF
:100370001F229A628023DB05174ADA628023DB059D
:100380009A698023DB0501210A439A618023DB05FA
:100390001A6A8023DB050B210A431A628023DB05DE
:1003A000DA688023DB0502210A43DA600B4B1A6806
:1003B0000A4B802109020A431A608023DB051A6870
:1003C0008023DB0501210A431A6062B6C046C0469D
:1003D000BD4680BD00100240FFFF000000E100E0CC
:1003E00080B582B000AF8023DB051B690222134079
:1003F00000D17AE08023DB055A6BBB1D1A80A02355
:10040000DB051A6980231B02134004D1394BBA1D46
:1004100012881A8061E0374B1B889BB2BA1D128884
:10042000D31A9AB2344B1A80334B1B889AB2962354
:100430005B009A4210D9304B1B889AB296239B00DE
:100440009A4209D22D4B01221A602D4B00221A60CC
:100450002C4B00221A6040E0284B1B68012B3CD13A
:10046000254B1B889BB2642B11D9234B1B889AB256
:10047000AF235B009A420AD2224B1B685A00214BE1
:100480001A601F4B1B685A1C1D4B1A601BE01A4B4D
:100490001B889BB21C4A934212D9174B1B889BB2F4
:1004A0001A4A93420CD8174B1B685B0001221A436F
:1004B000144B1A60124B1B685A1C114B1A6002E055
:1004C0000E4B00221A600E4B1B68042B05D1104BFB
:1004D00001221A60094B00221A608023DB051A6989
:1004E0008023DB0502218A431A61C046BD4602B063
:1004F00080BDC046280600202A0600202C060020C9
:1005000030060020340600208A0200004B04000060
:100510003806002080B500AFA023DB055A69A02370
:10052000DB0503490A405A61C046BD4680BDC0464E
:100530007F9EFFFF80B500AFA023DB055A69A02393
:10054000DB0507490A405A61A023DB055A69A0234D
:10055000DB05822189010A435A61C046BD4680BD40
:100560007F9EFFFF80B584B000AF0200FB1D1A70B4
:10057000BB1D0A1C1A70BB1D1B78002B05D0394B04
:100580001B78002B01D0012200E000220F23FB1872
:100590001A701A7801210A401A70FB1D1B78042B6F
:1005A0003ED057DC032B21D054DC012B13D0022B7F
:1005B00050D1A023DB055A69A023DB052A490A4054
:1005C0005A61A023DB055A69A023DB058221C901FA
:1005D0000A435A6141E00F23FB181B78002B02D01D
:1005E000FFF798FF39E0FFF7A5FF36E00F23FB1870
:1005F0001B78002B02D0FFF78DFF2EE0A023DB0538
:100600005A69A023DB0518490A405A61A023DB057B
:100610005A69A023DB05842189010A435A611CE041
:100620000F23FB181B78002B02D0FFF773FF14E099
:10063000A023DB055A69A023DB050B490A405A6158
:10064000A023DB055A69A023DB058121C9010A43E8
:100650005A6102E0FFF75EFFC046C046BD4604B0E7
:1006600080BDC046F30100207F9EFFFF80B500AF34
:10067000FFF750FFC046BD4680BD80B500AFFFF715
:1006800059FFC046BD4680BD80B500AFA023DB0545
:100690005B69054A1A40A023DB05842189010A43CE
:1006A0005A61C046BD4680BD7F9EFFFF80B500AF4A
:1006B000A023DB055B69054A1A40A023DB058121E5
:1006C000C9010A435A61C046BD4680BD7F9EFFFFF7
:1006D00080B500AFA023DB055B69054A1A40A02363
:1006E000DB05802189010A435A61C046BD4680BDB1
:1006F0007F9EFFFF80B500AFA023DB055B69054A45
:100700001A40A023DB0580210A435A61C046BD463A
:1007100080BDC0467F9EFFFF80B500AF114B012218
:100720001A70114B05221A70104B01221A70FFF734
:10073000E3FC03000E4A9A180E4B1A60A023DB0557
:100740005A69A023DB050C490A405A61A023DB0546
:100750005A69A023DB058121C9010A435A61C046B9
:10076000BD4680BDDC0100200000002058060020AE
:100770008A0200005C0600207F9EFFFF80B500AF6C
:100780000D4B1B78002B13D00B4B1B78012B10D17A
:10079000FFF7B2FC0200094B1B68D31A09D4FFF71C
:1007A000B9FE054B00221A70054B05221A7000E0B5
:1007B000C046BD4680BDC046580600205C060020ED
:1007C0000000002080B500AF044B00221A70044BDB
:1007D00000221A60C046BD4680BDC04660060020AB
:1007E0006406002080B582B000AF0200FB1D1A70C5
:1007F0000A4B01221A700A4BFA1D12781A70094B23
:1008000001221A70FFF778FC0300B4331A00064B7C
:100810001A60C046BD4602B080BDC046DC01002063
:1008200000000020600600206406002080B500AFB4
:10083000134B1B7801225340DBB2002B19D1114B13
:100840001B78012B17D1104B1B78002B15D1FFF70C
:1008500053FC02000D4B1B68D31A0FD40C4B05221E
:100860001A70FFF757FE074B00221A70FFF7AAFF16
:1008700004E0C04602E0C04600E0C046BD4680BD80
:1008800060060020DC0100205806002064060020DD
:100890000000002080B500AF114B1B78012B03D066
:1008A000104B00221A7018E00F4B1B78002B0BD056
:1008B0000D4B1A780D4B1100180002F0EDFF0300EC
:1008C0001A00084B1A7002E0064B00221A70054B02
:1008D0001B78002B01D0FFF71DFEBD4680BDC04632
:1008E000DC010020F3010020F201002008000020BC
:1008F00080B500AF074B1B78012B08D1FFF7CAFF6B
:10090000054B1B7801211800FFF72CFE00E0C046C4
:10091000BD4680BDDC0100200000002080B582B013
:1009200000AF78600A00FB1C1A707B681A68FB1C19
:100930001B785B00032199400B001A437B681A6007
:100940007B68DB68FA1C12785200032191400A0090
:10095000D2431A407B68DA60C046BD4602B080BD13
:1009600080B584B000AF78600A4BFB6002E0FB68A2
:10097000013BFB60084B1B687A68134002D1FB689F
:10098000002BF4D1FB685A1E9341DBB21800BD4620
:1009900004B080BD400D03000024014080B500AFCD
:1009A000384B5A6B374B802189000A435A63354BC9
:1009B000DA6A344B01210A43DA62A023DB05002105
:1009C0001800FFF7ABFFA023DB0501211800FFF79C
:1009D000A5FFA023DB0502211800FFF79FFFA0233E
:1009E000DB0503211800FFF799FFA023DB05052194
:1009F0001800FFF793FFA023DB0506211800FFF77F
:100A00008DFF214B9B680122134008D01E4B9A6832
:100A10001D4B02210A439A600120FFF777FB1A4B16
:100A20000022DA60184B8022D2051A61164B072289
:100A30005A61154B00229A62134B9A68124B80211F
:100A400049050A439A600120FFF760FB0E4B9A6844
:100A50000D4B802109060A439A60C0460A4B9B68E9
:100A6000002BFBDB084B1D221A60074B9A68064BD4
:100A700001210A439A600120FFF772FFC046BD467C
:100A800080BDC046001002400024014080B582B005
:100A900000AF0200FB1D1A70FB1D1B7801229A405B
:100AA00013001800BD4602B080BD90B583B000AF02
:100AB0000200FB1D1A70124CFB1D1B781800FFF77B
:100AC000E5FF0300A3620E4B1C221A600C4B9A68D0
:100AD0000B4B04210A439A600420FFF741FF0300F7
:100AE0001A0001235340DBB2002B01D0002302E0A7
:100AF000034B1B6C9BB21800BD4603B090BDC046B3
:100B00000024014080B584B000AF0200FB1D1A70C4
:100B10000023FB600B23FB1800221A700FE0FB1D63
:100B20001B781800FFF7C1FF03001A00FB689B1831
:100B3000FB600B217B181A787B1801321A700B238B
:100B4000FB181B780F2BEAD9FB681B099BB2180016
:100B5000BD4604B080BDB0B586B000AF7860162544
:100B60007C190220FFF7CEFF030023801423FC181A
:100B70000320FFF7C7FF030023801223FC18052082
:100B8000FFF7C0FF030023807B191B889AB2382A25
:100B900000D238239BB2383B9AB20C23FB181A8040
:100BA0001423FB181B889AB2182A00D218239BB270
:100BB000183B9AB20C23FB185A801223FB181B888F
:100BC0009AB2172A00D217239BB2173B9AB20C2174
:100BD0007B189A807A687B181000190006231A0087
:100BE00004F053F97868BD4606B0B0BD80B500AFDB
:100BF0000E4B00221A700E4B00221A700D4B002271
:100C00001A800D4B00221A700C4B00221A600C4BFC
:100C100000221A800B4B00221A800B4B05221A70FF
:100C2000FFF778FCC046BD4680BDC0465806002090
:100C3000F4010020F8050020FA050020FC05002042
:100C400000060020020600200A00002080B584B0C3
:100C500000AF0200FB1D1A70214B1B78012B38D10D
:100C6000FFF74AFA02001F4B1B68D31AFB60FB68B0
:100C70001D4A934201D91C4BFB601C4B1B88002B67
:100C80000BD01A4B1B88013B194A9B00D318023327
:100C90001B78FA1D12789A421DD0144B1B88FF2B2B
:100CA0001AD8124B1B881A00FB6899B2104B92009D
:100CB000D1520E4B1B880E4A9B00D3180233FA1DEB
:100CC00012781A70094B1B8801339AB2074B1A80AD
:100CD00002E0C04600E0C046BD4604B080BDC0464C
:100CE000F4010020FC050020204E0000F805002043
:100CF000F801002080B500AF134B00221A70134B8F
:100D000001221A70124B00221A80124B00221A7014
:100D1000114B00221A80114B00221A80104B052221
:100D20001A70FFF7E9F902000E4B1A60FFF7F2FBA9
:100D30000D4B00221A800C4B05229A70044B0122A5
:100D40001A80C046BD4680BD58060020F401002030
:100D5000F8050020FA050020000600200206002009
:100D60000A000020FC050020F801002080B582B0B8
:100D700000AFFFF7C1F90200234B1B68D31A7B6059
:100D80007B68224A934201D9204B7B607B689AB2F0
:100D90001F4B1A801F4B1B88FF2B1FD81D4B1B8816
:100DA000013B1D4A9B00D31802331B78052B15D03D
:100DB000184B1B881A00164B1988174B9200D152FA
:100DC000144B1B88144A9B00D318023305221A7057
:100DD000104B1B8801339AB20E4B1A80FFF79AFB17
:100DE0000E4B05221A700E4B00221A70094B1B88FD
:100DF0005A1E9341DAB20B4B1A700B4B03221A7036
:100E0000C046BD4602B080BDFC050020204E00005B
:100E100000060020F8050020F80100200A0000204C
:100E2000F4010020FA050020DC01002080B500AFAD
:100E3000124B1B7801225340DBB2002B1AD1104B0E
:100E400000221A700F4B02221A70FFF755F90200A8
:100E50000D4B1A600D4B1B88002B02D10B4B0C4A1B
:100E60001A800C4B00221A800B4B05221A70FFF7D8
:100E700051FB00E0C046BD4680BDC046FA050020DB
:100E800058060020F4010020FC0500200006002088
:100E9000204E0000020600200A00002080B582B02B
:100EA00000AF314B1B78032B5AD1304B1B78012BF1
:100EB0000DD1FFF721F902002D4B1B68D31A7B607F
:100EC0007B682C4A93424CD9FFF750FF49E0274BEF
:100ED0001B78022B45D1FFF70FF90200244B1B684A
:100EE000D31A7B6014E0244B1B88244A9B00D31840
:100EF00002331A78224B1A70214B1B7800211800FC
:100F0000FFF730FB1C4B1B8801339AB21A4B1A8037
:100F1000194B1A881B4B1B889A4209D2164B1B8807
:100F20001A00164B9200D35A1A007B689342DAD209
:100F3000114B1A88134B1B889A4205D2124B1B88FF
:100F40001A007B6893420CD3FFF7E4FA0C4B05229E
:100F50001A70064B00221A70034B03221A7000E02D
:100F6000C046BD4602B080BDDC010020F401002077
:100F7000FC0500201F4E000002060020F8010020A2
:100F80000A000020F80500200006002080B500AF10
:100F90000F4B00221A600F4B00221A600E4B0022EA
:100FA0001A600E4B00221A600D4B00221A600D4B86
:100FB00000221A600C4B00221A600C4B00221A709F
:100FC0000B4B00221A60FFF7A5FAC046BD4680BD54
:100FD00004060020080600200C0600201006002051
:100FE00014060020180600201C0600202006002001
:100FF0002406002080B500AF054B00221A70054B77
:1010000004221A70FFF7C2FFC046BD4680BDC0462D
:1010100058060020DC01002080B500AFFFF7B6FFC6
:10102000044B01221A70044B05221A70C046BD46BB
:1010300080BDC046DC0100200000002080B584B0E7
:1010400000AF0200FB1D1A70FB1D1B781800FFF794
:101050002CFD0300FB60FB68054A94466344BB60BB
:10106000BB68DA179B1853401800BD4604B080BD1A
:1010700000F8FFFF80B58CB000AFF860B9607A600F
:10108000FFF73AF803003B620023FB620023BB62D8
:1010900000237B6220E00020FFF7D0FF0300FB610C
:1010A0000120FFF7CBFF0300BB610620FFF7C6FF5F
:1010B00003007B61FA69FB6A9A4201DDFB69FB620E
:1010C000BA69BB6A9A4201DDBB69BB627A697B6A15
:1010D0009A4201DD7B697B62FFF70EF802003B6AF2
:1010E000D31A1D2BD7D9FB68FA6A1A60BB68BA6A93
:1010F0001A607B687A6A1A60C046BD460CB080BD33
:1011000080B588B000AFF860B9607A60FA68BB68F3
:10111000D31ABB61BB69DA179B1853407B61FB682C
:10112000FB61BA68FB699A4201DDBB68FB617A68C2
:10113000FB699A4201DD7B68FB61FB69264A9342A9
:1011400001DC002343E0FB684133FF337A689A42B5
:1011500007DDBB684133FF337A689A4201DD032320
:1011600035E07B684133FF33FA689A4207DDBB689C
:101170000533FF33FA689A4201DD012327E07B68DB
:101180004133FF33BA689A4207DDFB680533FF330A
:10119000BA689A4201DD022319E07B69DC2B15DC79
:1011A000FB680E4A934211DDBB680C4A93420DDD89
:1011B0007B680533FF33FA689A4207DD7B680533A5
:1011C000FF33BA689A4201DD042300E000231800CF
:1011D000BD4608B080BDC0460D0600002C060000CC
:1011E00080B500AF074B01221A70FEF785FF0200A1
:1011F000054B1A6000210120FFF7B4F9C046BD4637
:1012000080BDC046200600202406002080B500AF27
:10121000074B02221A70FEF76FFF0200054B1A609F
:1012200000210420FFF79EF9C046BD4680BDC046A0
:10123000200600202406002080B582B000AF020006
:10124000FB1D1A700A4B00221A70FEF755FF0300AF
:10125000FA2292009A18074B1A60FB1D1B78002196
:101260001800FFF77FF9C046BD4602B080BDC046FA
:10127000200600201C06002090B587B000AFFEF7C6
:101280003BFF03007B617D4B1B78042B00D0EBE020
:101290007B4B1B78022B12D17A4B1B687A69D31ACD
:1012A000794A934200D8E1E0754B03221A70754BDE
:1012B0007A691A6000210120FFF754F9D6E0704BDB
:1012C0001B78032B03D06E4B1B78012B23D13B00E3
:1012D00000221A806D4B1B78002B17D03A006C4B04
:1012E0001100180002F0CEF9031E0FD03B001B883E
:1012F000632B0BD8FFF70EF9614B00221A70654B78
:101300007A691A60644B00221A60B4E0002101205F
:10131000FFF728F9AFE0614B1B68002B11D05F4B42
:101320001B687A69D31A00D5A2E0FFF7F3F85B4B8C
:1013300000221A60574B7A691A60574B00221A60D4
:1013400096E0A023DB055A69C323DB01134000D0DC
:1013500090E00020FFF772FE03003B610120FFF7E1
:101360006DFE0300FB600620FFF768FE0300BB6014
:101370003A69AF23DB009A4209DCFA68AF23DB004D
:101380009A4204DCBA68AF23DB009A4201DD0123F4
:1013900000E000237B607B68002B1AD03D4B1B686C
:1013A0007A69D31AC82B14D93B4B1B685A1C3A4B89
:1013B0001A60384B7A691A60374B1B68012B08D1C9
:1013C000374B7A691A60374A3749384B1800FFF7AC
:1013D00051FE314B1B68002B4DDD314B1B687A6988
:1013E000D31A334A934246D92B4B1B68012B18D191
:1013F0002D4B18682D4B19682A4B1B68FC1C1A00D2
:10140000FFF77EFE03002370FB1C1B78013B032BC0
:1014100003D80420FFF710FF1AE01F4B00221A60C8
:1014200016E01D4B1B68022B03D10420FFF704FFBD
:101430000EE0194B1B68032B03D10320FFF7FCFEC2
:1014400006E0154B1B68032B02DD0120FFF7F4FEBD
:101450000B4B1B78002B03D1104B1B68002B0AD0C1
:101460000D4B00221A6006E0C04604E0C04602E0D0
:10147000C04600E0C046BD4607B090BDDC0100207C
:10148000200600202406002025020000F201002092
:10149000080000200C060020040600201C06002086
:1014A0000806002018060020140600201006002060
:1014B000DC05000080B500AF164B00221A60164B09
:1014C00000221A60154B01221A60154B00221A6087
:1014D000144B00221A70144B00221A70134B002276
:1014E0001A70134B00221A70124B00221A60124B12
:1014F00000221A60114B00221A70114B00221A6050
:10150000104B00221A70104B00221A60C046BD46D4
:1015100080BDC046E4010020E80100200400002056
:10152000EC010020F0010020F10100203C06002029
:101530003D0600204006002044060020480600200A
:101540004C060020500600205406002090B583B0C1
:1015500000AFFEF755FE29E2FC1DFEF77BFE0300FF
:101560002370FB1D1B781800FEF77EFE031E00D0C3
:101570001CE2C14B1B78022B0CD1FB1D1B78532B9B
:1015800004D0FB1D1B78732B00D00FE2BB4B012254
:101590001A700BE2B84B1B78042B0BD1FB1D1B7888
:1015A000532B04D0FB1D1B78732B00D0FEE1FFF7FB
:1015B00033FDFBE1FB1D1B78752B00D1D2E100DD73
:1015C000F3E1742B00D1C2E100DDEEE1732B00D119
:1015D00027E100DDE9E1722B00D1BEE000DDE4E1AE
:1015E000702B00D1C9E100DDDFE16E2B00D1CFE12E
:1015F00000DDDAE16C2B00D17DE000DDD5E1662B6A
:1016000047D000DDD1E1652B00D183E100DDCCE1E5
:10161000622B00D1D3E000DDC7E1552B00D1A1E161
:1016200000DDC2E1542B00D191E100DDBDE1532B7F
:1016300000D1F6E000DDB8E1522B00D18DE000DDF5
:10164000B3E1502B00D198E100DDAEE14E2B00D18B
:101650009EE100DDA9E14C2B4DD000DDA5E1462B3C
:1016600017D000DDA1E1452B00D153E100DD9CE165
:10167000422B00D1A3E000DD97E1332B00D133E111
:1016800000DD92E1312B00D102E1322B00D115E1D6
:101690008BE1794B1B78032B21D1794B1B78012BE4
:1016A0000CD10120FFF7D2FA764B01221A70754B4C
:1016B0001B7800211800FEF755FF77E1704B1B786F
:1016C000002B00D072E1704B00221A70FFF77AF8FD
:1016D000694B01221A706D4B01221A7066E16A4B48
:1016E00000221A70FFF76EF8634B01221A70674BE5
:1016F00001221A705AE1604B1B78032B21D1604BF9
:101700001B78012B0CD10320FFF7A0FA5D4B0322BD
:101710001A705C4B1B7800211800FEF723FF45E18F
:10172000574B1B78002B00D040E1574B00221A701A
:10173000FFF748F8504B01221A70544B03221A70DD
:1017400034E1514B00221A70FFF73CF84A4B01225A
:101750001A704E4B03221A7028E1474B1B78032B5B
:1017600021D1474B1B78012B0CD10420FFF76EFAD7
:10177000444B04221A70434B1B7800211800FEF7DB
:10178000F1FE13E13E4B1B78002B00D00EE13E4BE7
:1017900000221A70FFF716F8374B01221A703B4BE4
:1017A00004221A7002E1384B00221A70FFF70AF87F
:1017B000314B01221A70354B04221A70F6E02E4B81
:1017C0001B78032B21D12E4B1B78012B0CD102202F
:1017D000FFF73CFA2B4B02221A702A4B1B78002190
:1017E0001800FEF7BFFEE1E0254B1B78002B00D070
:1017F000DCE0254B00221A70FEF7E4FF1E4B0122AD
:101800001A70224B02221A70D0E01F4B00221A706D
:10181000FEF7D8FF184B01221A701C4B02221A70D7
:10182000C4E0154B1B78032B1BD1154B1B78012BE8
:101830000AD10520FFF70AFA124B05221A7000217F
:101840000520FEF78FFEB1E00D4B1B78002B00D07A
:10185000ACE00C4B05221A7000210520FEF782FE39
:10186000A4E0FEF7AFFF094B05221A70FEF752FE07
:10187000014B00221A7099E0DC010020F1010020E8
:10188000F40100200A00002058060020000000207B
:101890004B4B00221A70FEF795FFFEF73BFE494BBB
:1018A00005221A70FFF706FE474B00221A60474BCD
:1018B00001221A70464B02221A7077E0404B002238
:1018C0001A70FEF77FFFFEF725FE3E4B05221A70C9
:1018D000FFF7F0FD3C4B01221A603C4B01221A70CD
:1018E0003B4B02221A7061E0354B00221A70FEF762
:1018F00069FFFEF70FFE334B05221A70FFF7DAFD82
:10190000314B02221A60314B01221A70304B0222F5
:101910001A704BE02E4B1B78032B07D1FFF766F9AB
:10192000FEF750FF2A4B00221A703FE0FEF74AFFF5
:10193000FEF7F0FD234B05221A70254B03221A7087
:10194000244B00221A70244B05221A702EE0204BE3
:101950001B78032B2AD11F4B1B78022B26D0FFF7B5
:10196000C9F923E01A4B1B78032B1FD1194B1B78A5
:10197000022B1BD0FFF7BEF918E0154B1B78032B89
:1019800014D1144B1B78002B10D1FFF74FFA0DE048
:101990000B4B00221A70FEF715FFFEF7BBFD094B3B
:1019A00005221A70FFF726FB00E0C046FEF744FC54
:1019B000031E00D0D0E5C046C046BD4603B090BD72
:1019C0005806002000000020E00100203C06002016
:1019D000DC010020F40100200A00002080B500AFE7
:1019E000724B1B68002B00D1D8E0704B00221A60AC
:1019F0006F4B1B78032B00D1D2E06D4B1B78042B6F
:101A000000D1CDE06B4B1B680E2B43D000DDC9E04D
:101A10000C2B3AD000DDC5E0082B00D1A8E000DD9A
:101A2000C0E0072B00D18DE000DDBBE0062B00D12C
:101A300072E000DDB6E0052B54D000DDB2E0042BEF
:101A40001CD000DDAEE0032B11D000DDAAE0022B9C
:101A50002DD000DDA6E0002B30D0012B00D0A1E07E
:101A6000554B00221A700120FEF7BCFE9BE0524B42
:101A700000221A700320FEF7B5FE94E04E4B0022C0
:101A80001A700420FEF7AEFE8DE0FEF79BFEFEF717
:101A900043FE88E0FEF796FE474B00221A70FEF7E1
:101AA00039FD464B05221A70FFF7A4FA7BE0424B42
:101AB00000221A700220FEF795FE74E0FEF782FE07
:101AC0003D4B00221A703D4B05221A70FEF722FD95
:101AD000374B1B78022B01D1FFF7ECFC344B002273
:101AE0001A7060E0FEF76EFE334B00221A70FEF7AC
:101AF00011FD324B05221A702D4B1B78022B05D19C
:101B0000FFF7D8FC2A4B01221A704CE0FFF7D2FCF9
:101B1000274B02221A7046E0FEF754FE264B0022A5
:101B20001A70FEF7F7FC254B05221A70FFF7C2FC6E
:101B3000234B00221A60234B01221A701C4B0222F5
:101B40001A7030E0FEF73EFE1B4B00221A70FEF7C3
:101B5000E1FC1A4B05221A70FFF7ACFC184B01226E
:101B60001A60184B01221A70114B02221A701AE0E7
:101B7000FEF728FE104B00221A70FEF7CBFC0F4B2D
:101B800005221A70FFF796FC0D4B02221A600D4BCE
:101B900001221A70064B02221A7004E0C04602E0CD
:101BA000C04600E0C046BD4680BDC04638060020A5
:101BB000DC01002034060020580600200000002030
:101BC000E00100203C06002080B584B000AF7860C2
:101BD0000023FB6017E00120FEF798FAFB68013351
:101BE000FB60FFF7B3FCFFF7F9FE0B4B1B78DBB292
:101BF000002B08D0FEF73AFDFFF75CFC074B0022F4
:101C00001A70012304E0FA687B689A42E3DB002340
:101C10001800BD4604B080BDF1010020DC010020A9
:101C200090B58DB000AF864B1B68072B06DDFEF725
:101C30001DFD844B00221A700123FDE0824B1968C0
:101C40007F4B1A68814BC9008A189200D358BB6237
:101C50007B4B1B685A1C7A4B1A607D4B01221A7011
:101C60007C4B00221A60FEF747FA03002D33FF3346
:101C70001A00794B1A60BB6A022B00D190E0BB6A54
:101C8000022B00DDCEE0BB6A002B03D0BB6A012B28
:101C900042D0C7E00023FB6227E014243B19180060
:101CA000FEF759FF21007B181B881A007B189B88C0
:101CB000D31AFB61FA6996235B009A4202DDFEF7B4
:101CC00007FD08E0FB69654A934202DAFEF712FD60
:101CD00001E0FEF7D2FC0820FFF776FF031E01D0DB
:101CE0000123A9E0FB6A0133FB62FB6A182BD4DDF8
:101CF000574B00221A70574B00221A60584B002293
:101D00001A60FEF7F9F90300DC331A00524B1A602F
:101D1000544B00221A708EE00023FB620BE0FEF7AA
:101D2000B3FC0420FFF750FF031E01D0012383E022
:101D3000FB6A0133FB62FB6A232BF0DD0023FB62AD
:101D400027E00C243B191800FEF705FF21007B1843
:101D50001B881A007B189B88D31A3B623A6A962329
:101D60005B009A4202DDFEF7B3FC08E03B6A3B4AA7
:101D7000934202DAFEF7BEFC01E0FEF77EFC08208B
:101D8000FFF722FF031E01D0012355E0FB6A013358
:101D9000FB62FB6A1F2BD4DD324B01221A704AE032
:101DA0000023FB620BE0FEF781FC0420FFF70CFF31
:101DB000031E01D001233FE0FB6A0133FB62FB6A93
:101DC000232BF0DD0023FB6225E03B1D1800FEF70E
:101DD000C2FE3B1D1B881A003B1D9B88D31A7B62E9
:101DE0007A6A96235B009A4202DDFEF771FC08E0F6
:101DF0007B6A1A4A934202DAFEF77CFC01E0FEF7A6
:101E00003CFC0820FFF7E0FE031E01D0012313E095
:101E1000FB6A0133FB62FB6A1F2BD6DD114B0122EB
:101E20001A7008E0FEF722FCFFF744FB054B002286
:101E30001A70012300E000231800BD460DB090BDCC
:101E4000E4010020DC010020E0010020489A0008A5
:101E50003D0600204006002044060020D4FEFFFF7F
:101E6000EC010020F0010020F0B587B000AFF4E1F4
:101E70003B001800FEF76FFE3B001B881A003B007A
:101E80009B88D31A7B617B69DA179B1853403B61AF
:101E90003B0099883B001B880E22BA181C1C0B1CA7
:101EA00098B2A1B2884200D2231C13803B005A880A
:101EB0000D23FB18C4499142924152421A703B00D3
:101EC0001B88C24A934206D93B009B88BF4A934273
:101ED00001D9012200E000220C257B191A701A7822
:101EE00001210A401A700B26B9193B69D722DC0F71
:101EF000D0179A42444123000B700D23FB181B7826
:101F0000002B09D07B191B78002B05D0BB191B783F
:101F1000002B01D0012200E000220A23FB181A70D6
:101F20001A7801210A401A700D23FB181B78012230
:101F30005340DBB2002B0DD10C23FB181B78012280
:101F40005340DBB2002B05D13B005A88E1239B00B4
:101F50009A4201D2012200E000220923FB181A70E4
:101F60001A7801210A401A70FFF7F0FAFFF736FDE0
:101F7000974B1B78DBB2002B08D0FEF777FBFFF7FF
:101F800099FA944B00221A70C0466BE1924B1B7871
:101F900001225340DBB2002B05D0FEF767FB052082
:101FA000FEF7B4F859E18D4B1B68002B0BD08B4B1F
:101FB00000221A608A4B00221A708A4B00221A6093
:101FC000894B00221A600E23FB181B88452B08D86A
:101FD000FEF74CFB3220FFF7F7FD031E00D139E17D
:101FE00037E1824B1B78002B00D16DE03B005A8813
:101FF000E1239B009A420ED23B001B887C4A93420D
:1020000009D93B009B887A4A934204D93B69DC2B6F
:1020100001DC012200E000220823FB181A701A7864
:1020200001210A401A70FEF767F80200714B1B6825
:10203000D31A00D593E0704B1B7801225340DBB2DA
:10204000002B1FD00A23FB181B7801225340DBB260
:10205000002B13D0694B1B685A1C684B1A60674BE6
:102060001B68032B00DC7AE0634B01221A70634B80
:1020700000221A60624B00221A6070E05F4B00225F
:102080001A606CE00823FB181B78002B18D05C4BFF
:102090001B685A1C5A4B1A60594B1B68022B5EDD99
:1020A000524B00221A70554B00221A60524B0022EC
:1020B0001A70534B00221A604A4B00221A604EE0FD
:1020C0004F4B00221A604AE04E4B1B78002B1BD06E
:1020D0000923FB181B78002B12D0434B1B685A1C9A
:1020E000414B1A60404B1B68022B38DD454B0022E8
:1020F0001A703D4B00221A603A4B00221A602EE003
:10210000394B00221A602AE0FDF7F6FF0200394B36
:102110001B68D31A20D40A23FB181B78002B17D076
:10212000304B1B685A1C2F4B1A602E4B1B68022B1E
:1021300015DD344B01221A702B4B00221A60294BFB
:1021400000221A60FFF76CFD031E00D184E080E0DE
:10215000244B00221A6002E0224B00221A603A69E6
:1021600096235B009A420BDCFEF787FA0820FFF704
:102170002BFD031E00D069E0194B00221A706CE0A1
:102180007B69002B42DD3B691F4A934213DD144BF0
:102190001B78002B07D0FEF79BFA1420FFF714FDE5
:1021A000031E5AD055E0FEF76FFA0820FFF70CFD2A
:1021B000031E52D04DE0FEF78BFA1420FFF704FD0A
:1021C000031E4AD045E0C0463907000095050000CF
:1021D000F1010020DC0100203C060020040000206A
:1021E000F0010020EC0100204006002048060020FD
:1021F000A306000044060020500600204C060020E4
:10220000540600203D060020EE0200003B69174AFC
:10221000934213DD164B1B78002B07D0FEF76AFAAA
:102220001420FFF7D1FC031E17D012E0FEF73EFA90
:102230000820FFF7C9FC031E0FD00AE0FEF75AFA88
:102240001420FFF7C1FC031E02D106E0C04609E0DE
:10225000C04607E0C04600E0C046064B1B78022B94
:1022600000D105E6C046BD4607B0F0BDEE02000055
:10227000F0010020DC01002080B500AFFEF711F86E
:10228000FEF74AF8FDF75CFFFEF788FB00F0C2F8A6
:1022900000F00AF900F0F6F80A20FDF737FF254BA9
:1022A00029221A70234B180001F0AFF903001A001D
:1022B000214B1A70214B224A5A60204B00229A600F
:1022C0001E4B07221A60C820FDF720FFFFF7F2F827
:1022D0001C4B00221A70FEF789FCFEF757FE194BC3
:1022E0001B78032B04D1FFF731F9FEF7D7FDF6E792
:1022F000FFF72CF9FFF772FB124B1B78042B02D16E
:10230000FEF7BAFFEBE70F4B1B78022B02D1FFF76A
:10231000ABFDE4E7FEF732FAFEF788FA094B1B78CB
:10232000012BDCD1084B1B78002BD8D1FEF7E0FA4B
:10233000D5E7C04608000020F201002010E000E0D0
:10234000FF7C0000DC0100205806002080B584B02E
:1023500000AF78600023FB600DE00023BB6003E06A
:10236000C046BB680133BB60BB68074A9342F7DDD8
:10237000FB680133FB60FB687A689A42EDDCC0467B
:10238000C046BD4604B080BD6F17000080B582B066
:1023900000AF78600A00FB1C1A707B681B68FA1C8F
:1023A00012785200032191400A00D2431A407B6800
:1023B0001A607B681A68FB1C1B785B00012199403E
:1023C0000B001A437B681A60C046BD4602B080BD50
:1023D00080B582B000AF78600A00FB1C1A70FB1C4D
:1023E0001B7801229A407B689A62C046BD4602B0C3
:1023F00080BD80B582B000AF78600A00FB1C1A7007
:10240000FB1C1B7801229A407B689A61C046BD463E
:1024100002B080BD80B500AF0F4BDA6A0E4B0221CF
:102420000A43DA620D4B00211800FFF7AFFF0B4B98
:102430005A680A4B01218A435A60084BDA68074BF5
:1024400003218A43DA60054B00211800FFF7C0FF23
:10245000C046BD4680BDC04600100240000400508A
:1024600080B500AF064B00211800FFF78FFF044B2B
:1024700000211800FFF7ACFFC046BD4680BDC04636
:102480000004005080B500AF064B00211800FFF794
:102490007DFF044B00211800FFF7ABFFC046BD468F
:1024A00080BDC0460004005080B500AF214BDA6A01
:1024B000204B02210A43DA621E4B9A6B1D4B80218E
:1024C00089030A439A631C4B1B681C4A1A401A4B27
:1024D000802189010A431A60174B1B6A184A1A4067
:1024E000154B802149040A431A62134B1B68154A95
:1024F0001A40114B802109020A431A600E4B1B6AD5
:102500001B011A090C4B802149050A431A620A4B28
:102510005A68094BC0210A435A60074B9A68064B18
:10252000A021C9010A439A60074B084A1A61C046B4
:10253000BD4680BD0010024000040050FFCFFFFFE9
:10254000FFFFFFF0FF3FFFFF00540040130F4270FA
:1025500090B583B000AF040008001100FB1D221CE1
:102560001A70BB1D021C1A707B1D0A1C1A701B4BB3
:1025700001221A60FB1D1B785A00184B18490A43A8
:102580005A60164B5A68154B802189010A435A60DC
:10259000C046124B9B6901221340012BF9D10F4B0E
:1025A000BA1D12789A62C0460C4B9B6901221340F7
:1025B000012BF9D1094B7A1D12789A62C046074B5C
:1025C0009B6901221340012BF9D10120FFF7BEFEC8
:1025D00001231800BD4603B090BDC0460054004022
:1025E0000000020280B582B000AF3A60FB1D021C01
:1025F0001A70BB1D0A1C1A70254B01221A60FB1DA4
:102600001B785A00224B23490A435A60204B5A68D0
:102610001F4B802189010A435A60C0461C4B9B69AD
:1026200001221340012BF9D1194BBA1D12789A627D
:10263000C046174B9B6901221340012BF9D10120A1
:10264000FFF784FE124B05221A60FB1D1B785A000F
:102650000F4B11490A435A600D4B5A680C4B8021AD
:1026600089010A435A60C046094B9B690422134002
:10267000042BF9D1064B5B6ADAB23B681A70012071
:10268000FFF764FE01231800BD4602B080BDC046BE
:1026900000540040000001020004010280B582B035
:1026A00000AF3A60FB1D021C1A70BB1D0A1C1A7099
:1026B0002E4B01221A60FB1D1B785A002B4B2C4914
:1026C0000A435A60294B5A68284B802189010A43E2
:1026D0005A60C046254B9B6901221340012BF9D15A
:1026E000224BBA1D12789A62C046204B9B69012288
:1026F0001340012BF9D10120FFF728FE1B4B0522C7
:102700001A60FB1D1B785A00184B1A490A435A607D
:10271000164B5A68154B802189010A435A60C046FE
:10272000124B9B6904221340042BF9D10F4B5B6AB7
:102730009BB21B029AB23B681A80C0460B4B9B6946
:1027400004221340042BF9D1084B5B6A9AB23B6810
:102750001B8813439AB23B681A800120FFF7F6FDED
:1027600001231800BD4602B080BDC04600540040A1
:10277000000001020004020280B584B000AF78605E
:102780000F217B1800221A707B681B787A18C021F1
:102790001800FFF727FF03001A0001235340DBB2A4
:1027A000002B01D0002306E00F23FB181B78EE3B23
:1027B0005A425341DBB21800BD4604B080BDB0B5EB
:1027C00084B000AF78600F23FB1800221A700E212E
:1027D0007B1800221A707B681B787A1889211800F0
:1027E000FFF700FF03001A0001235340DBB2002B68
:1027F00001D0002397E00E217B181B7801221343A0
:10280000DAB27B181A707B6818787B181B781A006C
:102810008921FFF79DFE03001A0001235340DBB21C
:10282000002B01D000237EE07B681B780F257C19EC
:10283000002288211800FFF78BFE030023707B68BD
:102840001B78012280211800FFF782FE03001A0086
:102850002C003B191B781A403B19511E8A411A70F3
:102860007B681B780122FF211800FFF771FE03002F
:102870001A003B191B781A403B19511E8A411A70E5
:102880007B681B78002200211800FFF761FE03001F
:102890001A003B191B781A403B19511E8A411A70C5
:1028A0007B6818787B6801331A009121FFF79AFE44
:1028B00003001A003B191B781A403B19511E8A412C
:1028C0001A707B681B78012200211800FFF740FE78
:1028D00003001A003B191B781A403B19511E8A410C
:1028E0001A707B681B780022FF211800FFF730FE6A
:1028F00003001A003B191B781A403B19511E8A41EC
:102900001A707B681B78002280211800FFF720FED8
:1029100003001A003B191B781A403B19511E8A41CB
:102920001A703B191B781800BD4604B0B0BDB0B595
:1029300084B000AF78607B681B780F257C1901227A
:10294000FF211800FFF704FE030023707B681B784B
:10295000002200211800FFF7FBFD03001A002C00E5
:102960003B191B781A403B19511E8A411A707B682B
:102970001B780022FF211800FFF7EAFD03001A0070
:102980003B191B781A403B19511E8A411A707B680B
:102990001B78002209211800FFF7DAFD03001A0056
:1029A0003B191B781A403B19511E8A411A707B68EB
:1029B0001B78002210211800FFF7CAFD03001A003F
:1029C0003B191B781A403B19511E8A411A707B68CB
:1029D0001B78002211211800FFF7BAFD03001A002E
:1029E0003B191B781A403B19511E8A411A707B68AB
:1029F0001B78012224211800FFF7AAFD03001A000A
:102A00003B191B781A403B19511E8A411A707B688A
:102A10001B78FF2225211800FFF79AFD03001A00FA
:102A20003B191B781A403B19511E8A411A707B686A
:102A30001B78002275211800FFF78AFD03001A0099
:102A40003B191B781A403B19511E8A411A707B684A
:102A50001B780122FF211800FFF77AFD03001A00FE
:102A60003B191B781A403B19511E8A411A707B682A
:102A70001B782C224E211800FFF76AFD03001A0074
:102A80003B191B781A403B19511E8A411A707B680A
:102A90001B78002248211800FFF75AFD03001A0096
:102AA0003B191B781A403B19511E8A411A707B68EA
:102AB0001B78202230211800FFF74AFD03001A007E
:102AC0003B191B781A403B19511E8A411A707B68CA
:102AD0001B780022FF211800FFF73AFD03001A00BF
:102AE0003B191B781A403B19511E8A411A707B68AA
:102AF0001B78092230211800FFF72AFD03001A0075
:102B00003B191B781A403B19511E8A411A707B6889
:102B10001B78002254211800FFF71AFD03001A0049
:102B20003B191B781A403B19511E8A411A707B6869
:102B30001B78042231211800FFF70AFD03001A0058
:102B40003B191B781A403B19511E8A411A707B6849
:102B50001B78032232211800FFF7FAFC03001A0049
:102B60003B191B781A403B19511E8A411A707B6829
:102B70001B78832240211800FFF7EAFC03001A00AB
:102B80003B191B781A403B19511E8A411A707B6809
:102B90001B78252246211800FFF7DAFC03001A00F3
:102BA0003B191B781A403B19511E8A411A707B68E9
:102BB0001B78002260211800FFF7CAFC03001A00EE
:102BC0003B191B781A403B19511E8A411A707B68C9
:102BD0001B78002227211800FFF7BAFC03001A0017
:102BE0003B191B781A403B19511E8A411A707B68A9
:102BF0001B78062250211800FFF7AAFC03001A00D8
:102C00003B191B781A403B19511E8A411A707B6888
:102C10001B78002251211800FFF79AFC03001A00CC
:102C20003B191B781A403B19511E8A411A707B6868
:102C30001B78962252211800FFF78AFC03001A0025
:102C40003B191B781A403B19511E8A411A707B6848
:102C50001B78082256211800FFF77AFC03001A009F
:102C60003B191B781A403B19511E8A411A707B6828
:102C70001B78302257211800FFF76AFC03001A0066
:102C80003B191B781A403B19511E8A411A707B6808
:102C90001B78002261211800FFF75AFC03001A007C
:102CA0003B191B781A403B19511E8A411A707B68E8
:102CB0001B78002262211800FFF74AFC03001A006B
:102CC0003B191B781A403B19511E8A411A707B68C8
:102CD0001B78002264211800FFF73AFC03001A0059
:102CE0003B191B781A403B19511E8A411A707B68A8
:102CF0001B78002265211800FFF72AFC03001A0048
:102D00003B191B781A403B19511E8A411A707B6887
:102D10001B78A02266211800FFF71AFC03001A0096
:102D20003B191B781A403B19511E8A411A707B6867
:102D30001B780122FF211800FFF70AFC03001A008C
:102D40003B191B781A403B19511E8A411A707B6847
:102D50001B78322222211800FFF7FAFB03001A0029
:102D60003B191B781A403B19511E8A411A707B6827
:102D70001B78142247211800FFF7EAFB03001A0012
:102D80003B191B781A403B19511E8A411A707B6807
:102D90001B78FF2249211800FFF7DAFB03001A0015
:102DA0003B191B781A403B19511E8A411A707B68E7
:102DB0001B7800224A211800FFF7CAFB03001A0003
:102DC0003B191B781A403B19511E8A411A707B68C7
:102DD0001B780022FF211800FFF7BAFB03001A003E
:102DE0003B191B781A403B19511E8A411A707B68A7
:102DF0001B780A227A211800FFF7AAFB03001A00A9
:102E00003B191B781A403B19511E8A411A707B6886
:102E10001B7800227B211800FFF79AFB03001A00A1
:102E20003B191B781A403B19511E8A411A707B6866
:102E30001B78212278211800FFF78AFB03001A0073
:102E40003B191B781A403B19511E8A411A707B6846
:102E50001B780122FF211800FFF77AFB03001A00FC
:102E60003B191B781A403B19511E8A411A707B6826
:102E70001B78342223211800FFF76AFB03001A0095
:102E80003B191B781A403B19511E8A411A707B6806
:102E90001B78002242211800FFF75AFB03001A009A
:102EA0003B191B781A403B19511E8A411A707B68E6
:102EB0001B78FF2244211800FFF74AFB03001A0089
:102EC0003B191B781A403B19511E8A411A707B68C6
:102ED0001B78262245211800FFF73AFB03001A0051
:102EE0003B191B781A403B19511E8A411A707B68A6
:102EF0001B78052246211800FFF72AFB03001A0061
:102F00003B191B781A403B19511E8A411A707B6885
:102F10001B78402240211800FFF71AFB03001A001B
:102F20003B191B781A403B19511E8A411A707B6865
:102F30001B7806220E211800FFF70AFB03001A0077
:102F40003B191B781A403B19511E8A411A707B6845
:102F50001B781A2220211800FFF7FAFA03001A0042
:102F60003B191B781A403B19511E8A411A707B6825
:102F70001B78402243211800FFF7EAFA03001A00E9
:102F80003B191B781A403B19511E8A411A707B6805
:102F90001B780022FF211800FFF7DAFA03001A005D
:102FA0003B191B781A403B19511E8A411A707B68E5
:102FB0001B78032234211800FFF7CAFA03001A0015
:102FC0003B191B781A403B19511E8A411A707B68C5
:102FD0001B78442235211800FFF7BAFA03001A00C3
:102FE0003B191B781A403B19511E8A411A707B68A5
:102FF0001B780122FF211800FFF7AAFA03001A002C
:103000003B191B781A403B19511E8A411A707B6884
:103010001B78042231211800FFF79AFA03001A00E6
:103020003B191B781A403B19511E8A411A707B6864
:103030001B7809224B211800FFF78AFA03001A00B7
:103040003B191B781A403B19511E8A411A707B6844
:103050001B7805224C211800FFF77AFA03001A00AA
:103060003B191B781A403B19511E8A411A707B6824
:103070001B7804224D211800FFF76AFA03001A009A
:103080003B191B781A403B19511E8A411A707B6804
:103090001B780022FF211800FFF75AFA03001A00DC
:1030A0003B191B781A403B19511E8A411A707B68E4
:1030B0001B78002244211800FFF74AFA03001A0087
:1030C0003B191B781A403B19511E8A411A707B68C4
:1030D0001B78202245211800FFF73AFA03001A0056
:1030E0003B191B781A403B19511E8A411A707B68A4
:1030F0001B78082247211800FFF72AFA03001A005C
:103100003B191B781A403B19511E8A411A707B6883
:103110001B78282248211800FFF71AFA03001A002A
:103120003B191B781A403B19511E8A411A707B6863
:103130001B78002267211800FFF70AFA03001A0023
:103140003B191B781A403B19511E8A411A707B6843
:103150001B78042270211800FFF7FAF903001A0007
:103160003B191B781A403B19511E8A411A707B6823
:103170001B78012271211800FFF7EAF903001A00F9
:103180003B191B781A403B19511E8A411A707B6803
:103190001B78FE2272211800FFF7DAF903001A00EB
:1031A0003B191B781A403B19511E8A411A707B68E3
:1031B0001B78002276211800FFF7CAF903001A00D5
:1031C0003B191B781A403B19511E8A411A707B68C3
:1031D0001B78002277211800FFF7BAF903001A00C4
:1031E0003B191B781A403B19511E8A411A707B68A3
:1031F0001B780122FF211800FFF7AAF903001A002B
:103200003B191B781A403B19511E8A411A707B6882
:103210001B7801220D211800FFF79AF903001A000C
:103220003B191B781A403B19511E8A411A707B6862
:103230001B780022FF211800FFF78AF903001A000B
:103240003B191B781A403B19511E8A411A707B6842
:103250001B78012280211800FFF77AF903001A0079
:103260003B191B781A403B19511E8A411A707B6822
:103270001B78F82201211800FFF76AF903001A00F1
:103280003B191B781A403B19511E8A411A707B6802
:103290001B780122FF211800FFF75AF903001A00DA
:1032A0003B191B781A403B19511E8A411A707B68E2
:1032B0001B7801228E211800FFF74AF903001A003B
:1032C0003B191B781A403B19511E8A411A707B68C2
:1032D0001B78012200211800FFF73AF903001A00B9
:1032E0003B191B781A403B19511E8A411A707B68A2
:1032F0001B780022FF211800FFF72AF903001A00AB
:103300003B191B781A403B19511E8A411A707B6881
:103310001B78002280211800FFF71AF903001A0019
:103320003B191B781A403B19511E8A411A703B19F0
:103330001B781800BD4604B0B0BD80B584B000AFA6
:1033400078600F23FB1800221A707B681B78042218
:103350000A211800FFF7FCF803001A00012353406C
:10336000DBB2002B01D000233AE07B681B780F22F0
:10337000BA1884211800FFF735F903001A00012359
:103380005340DBB2002B01D0002329E00F217B1832
:103390001B7810229343DAB27B181A707B68187876
:1033A0007B181B781A008421FFF7D2F803001A005B
:1033B00001235340DBB2002B01D0002310E07B68D7
:1033C0001B7801220B211800FFF7C2F803001A0036
:1033D00001235340DBB2002B01D0002300E0012386
:1033E0001800BD4604B080BD80B582B000AF7860E3
:1033F0000A00FB1C1A707B681878FB1C1B781A00EB
:103400000121FFF7A5F803001800BD4602B080BDFA
:1034100080B582B000AF78607B681800FFF787FA4C
:1034200003001A0001235340DBB2002B01D000231C
:103430001BE07B681800FFF780FF03001A000123E0
:103440005340DBB2002B01D000230EE07B68E82163
:103450001800FFF7C9FF03001A0001235340DBB235
:10346000002B01D0002300E001231800BD4602B06C
:1034700080BDF0B585B000AF78600A00FB1C1A7003
:103480000F23FB1800221A700E23FB1800221A705B
:103490000C23FB1800221A700D23FB1800221A704F
:1034A000FB1C1B78002B02D0012B09D011E00E234E
:1034B000FB1801221A700F23FB1841221A7008E032
:1034C0000E23FB1802221A700F23FB1801221A7018
:1034D000C0467B6818780E23FB181B781A00012160
:1034E000FFF736F803001A0001235340DBB2002B2C
:1034F00001D0002352E07B6818780F23FB181B785B
:103500001A000021FFF724F803001A00012353409A
:10351000DBB2002B01D0002340E07B681B780D2537
:103520007C190C26BA1913211800FFF75BF8030069
:1035300023707B191B78002B05D0BB191B781A0050
:1035400007231340E9D00D23FB181B7801225340B9
:10355000DBB2002B01D0002320E07B681B78012226
:103560000B211800FEF7F4FF03001A00012353405B
:10357000DBB2002B01D0002310E07B681B78002217
:1035800000211800FEF7E4FF03001A000123534056
:10359000DBB2002B01D0002300E001231800BD4660
:1035A00005B0F0BD80B582B000AF78607B680021C7
:1035B0001800FFF75EFF03001A0001235340DBB23F
:1035C000002B01D000231CE07B6801211800FFF7CD
:1035D00050FF03001A0001235340DBB2002B01D03F
:1035E00000230EE07B68E8211800FFF7FDFE0300D2
:1035F0001A0001235340DBB2002B01D0002300E06E
:1036000001231800BD4602B080BD80B582B000AF76
:1036100078607B681800FFF7AFF803001A000123F9
:103620005340DBB2002B01D0002327E07B68180059
:10363000FFF7C5F803001A0001235340DBB2002B4B
:1036400001D000231AE07B681800FFF7E1FE0300B9
:103650001A0001235340DBB2002B01D000230DE000
:103660007B681800FFF79EFF03001A0001235340F8
:10367000DBB2002B01D0002300E001231800BD467F
:1036800002B080BDF0B585B000AF786039600E2320
:10369000FB1800221A700D23FB1800221A707B6899
:1036A0001B780F257C19012280211800FEF750FF9E
:1036B000030023707B681B780122FF211800FEF7AE
:1036C00047FF03001A002C003B191B781A403B19D6
:1036D000511E8A411A707B681B7800220021180055
:1036E000FEF736FF03001A003B191B781A403B19FE
:1036F000511E8A411A707B6818787B685B781A00C3
:103700009121FEF725FF03001A003B191B781A4090
:103710003B19511E8A411A707B681B7801220021D7
:103720001800FEF715FF03001A003B191B781A401A
:103730003B19511E8A411A707B681B780022FF21B9
:103740001800FEF705FF03001A003B191B781A400A
:103750003B19511E8A411A707B681B780022802118
:103760001800FEF7F5FE03001A003B191B781A40FB
:103770003B19511E8A411A703B191B780122534094
:10378000DBB2002B01D000237DE07B681B78012297
:1037900000211800FEF7DCFE03001A00012353404D
:1037A000DBB2002B01D000236DE07B681B780F2576
:1037B0007C190E26BA1900211800FEF713FF03002A
:1037C00023707B191B78002B05D0BB191B781A00BE
:1037D00001231340E9D10F23FB181B78012253402A
:1037E000DBB2002B01D000234DE07B681B780F2556
:1037F0007C190D26BA1913211800FEF7F3FE0300F9
:1038000023707B191B78002B05D0BB191B781A007D
:1038100007231340E9D00F23FB181B7801225340E4
:10382000DBB2002B01D000232DE07B681B783A68C7
:103830001E211800FEF732FF03001A000123534037
:10384000DBB2002B01D000231DE07B681B78012236
:103850000B211800FEF77CFE03001A0001235340E1
:10386000DBB2002B01D000230DE03B681B88084A27
:10387000934204D03B681B88064A934202D13B68BE
:10388000034A1A8001231800BD4605B0F0BDC046AA
:10389000FE1F0000FF1F000090B585B000AF7860EC
:1038A0000A00FB1C1A700E243B1900221A80FB1C14
:1038B0001B78002B0DD03A197B6811001800FFF718
:1038C000E1FE031E05D03B191B88632B01D80123A1
:1038D00000E000231800BD4605B090BDB0B584B02F
:1038E00000AF786039600F243B1900221A700C2554
:1038F0007B1900221A807B681B781A003968294BD3
:10390000180001F09DFA7B681B783A19C021180055
:10391000FEF768FE3B191B781A00234B11001800B4
:1039200001F08EFA7B681B783A19C1211800FEF766
:1039300059FE3B191B781A001C4B1100180001F0AE
:103940007FFA7B681B783A19C2211800FEF74AFEFD
:103950003B191B781A00164B1100180001F070FA81
:103960007B681B787A1951211800FEF797FE7B19A6
:103970001B881A000F4B1100180001F061FA7B68D8
:103980001B787A1961211800FEF788FE7B191B88C5
:103990001A00094B1100180001F052FAC046BD464A
:1039A00004B0B0BDA89A0008B89A0008D09A0008E0
:1039B000E89A0008009B0008189B000880B582B0B8
:1039C00000AF164B7B60164B3B6007E07A68131D17
:1039D0007B603B68191D396012681A603A68114BA8
:1039E0009A42F3D304E03B681A1D3A6000221A6041
:1039F0003A680D4B9A42F6D30C4B3B6004E03B68AF
:103A00001A1D3A601B6898473A68094B9A42F6D3E8
:103A1000C046C046BD4602B080BDC0468C9F00086F
:103A200000000020D8010020680800208C9F0008BA
:103A30008C9F000880B500AF3B4B1A683A4B0121C0
:103A40000A431A60C046384B1B6804221340FAD060
:103A5000354B0122DA60C046334BDB680C22134041
:103A6000042BF9D1314B1A68304B02210A431A60FA
:103A70002E4B1A682D4B01210A431A602A4B9A6B70
:103A8000294B802149050A439A63294B8022120160
:103A90001A60C046264B5B6810221340FAD1224BB5
:103AA000DA68214B23490A40DA601F4BDA681E4B63
:103AB0008821C9030A43DA601B4A1B4BD268DA60CB
:103AC000194A194BD268DA60174A174BD268DA6084
:103AD000154B1A68144B18490A401A60124B1A68A1
:103AE000114B802149040A431A60C0460E4B1A68E4
:103AF00080239B041340F9D00B4BDA680A4B032157
:103B00008A43DA60084BDA68074B03210A43DA601C
:103B1000C046054BDB680C2213400C2BF9D1C04684
:103B2000C046BD4680BDC046001002400020024095
:103B300000700040FFFF02FFFFFFFFFE80B500AFF7
:103B4000024B180000F008FAFEE7C046589B000838
:103B500080B500AF024B180000F0FEF9FEE7C0464A
:103B6000889B000890B585B000AF78603960184B2D
:103B70001B68002B02D101235B4224E00023FB6081
:103B80000AE0FB685A1CFA603A68D418114B180016
:103B900000F0ADF9030023707B68013B1A00FB685D
:103BA000934205D20B4B180000F0CCF9031EE8D16C
:103BB000FB68002B06D03A68FB68D31800221A7005
:103BC000FB6800E000231800BD4605B090BDC0466C
:103BD000000700206806002080B584B000AF786040
:103BE0003960224B1B68002B02D101235B4238E075
:103BF0007B683F2B0BDCC0461D4B180000F0A2F980
:103C000003004022D21A7B689A42F5D302E00223D5
:103C10005B4226E00023FB600BE03A68FB68D318A8
:103C20001A78134B1100180000F030F9FB680133CB
:103C3000FB607B68FA689A42EFD30E4B1B68082240
:103C400013400DD10B4B1A680A4B08210A431A6026
:103C5000074B180000F04BF903001A00054B9A625D
:103C600000231800BD4604B080BDC04600070020F8
:103C7000B40600200038014080B584B000AF786001
:103C800072B6C046454B00229A64444B9A6C434B33
:103C90005A64424B5A6C414B1A64414B00229A645D
:103CA0003F4B9A6C3E4B5A643D4B5A6C3C4B1A64EA
:103CB0003C4B01221A603C4B00221A603B4BDA6AF3
:103CC0003A4B01210A43DA62394BFB607968F868A4
:103CD00000F070FB0300FB60A023DB059A68A023C3
:103CE000DB058021C9020A439A60A023DB055A68DC
:103CF000A023DB052F490A405A60A023DB051B687F
:103D00002D4A1A40A023DB05802109030A431A60CB
:103D1000A023DB055A6AA023DB0540210A435A622F
:103D2000A023DB051B68254A1A40A023DB05802160
:103D300089030A431A60A023DB055A6AA023DB0526
:103D40008021C9000A435A62184B5A6B174B8021D5
:103D5000C9010A435A631A4B1A68194B6C210A436A
:103D60001A60174B00225A60154B00229A60144BC0
:103D7000FA68DA60124B1A68114B01210A431A6083
:103D8000104B1A680F4B802109050A431A6062B66E
:103D9000C046C046BD4604B080BDC046680600208F
:103DA000B406002000070020040700200010024095
:103DB0000048E801FFFDFFFFFFFFF3FFFFFFCFFF1C
:103DC0000038014000E100E080B500AF084BDB693E
:103DD0008022134001D000F025F8054BDB6920223A
:103DE000134001D000F006F8C046BD4680BDC04675
:103DF0000038014080B500AF074B5B6ADAB2074B71
:103E00001100180000F042F8031E02D0044B0122FA
:103E10001A60C046BD4680BD0038014068060020DB
:103E20000407002080B500AF164B180000F08AF898
:103E3000031E08D0134B180000F059F803001A00B5
:103E4000114B9A621BE0104B1A680F4B08218A43F2
:103E50001A600D4BDB694022134005D00A4B1A6AE9
:103E6000094B40210A431A62074BDB698022134049
:103E700005D0054B9A69044B10210A439A61C0464C
:103E8000BD4680BDB40600200038014080B582B038
:103E900000AF78600A00FB1C1A707B681A6C7B68A4
:103EA0005B6C9A4205D17B689B6C002B01D001238F
:103EB00019E072B6C0467B681B6C591C7A681164A5
:103EC0007A68F91C0978D1547B689B6C5A1C7B6812
:103ED0009A647B681B6C402B02D17B6800221A64B9
:103EE00062B6C04600231800BD4602B080BD80B552
:103EF00084B000AF78607B689B6C002B01D10023FD
:103F00001CE072B6C0467B685B6C591C7A685164D1
:103F10000F22BA187968CB5C13707B685B6C402BFE
:103F200002D17B6800225A647B689B6C5A1E7B68B6
:103F30009A6462B6C0460F23FB181B781800BD4672
:103F400004B080BD80B582B000AF78607B689B6CA8
:103F50001800BD4602B080BD80B582B000AF786069
:103F60000B4B1B68002B09D101235B420BE07B68E4
:103F70005A1C7A6019000120FFF72EFE7B681B781F
:103F8000002BF4D100231800BD4602B080BDC0460E
:103F90000007002080B582B000AF0200FB1D1A7040
:103FA000FB1D19000120FFF717FEC046BD4602B0F9
:103FB00080BD80B500AF044B1800FFF798FF0300E9
:103FC0001800BD4680BDC04668060020B0B584B06C
:103FD00000AF786039601E4B1B68002B02D10123B3
:103FE0005B4231E00023FB600B23FB1800221A70B8
:103FF00017E0C046174B1800FFF7A4FF031EF9D0C7
:104000000B257C19134B1800FFF771FF0300237079
:10401000FB685A1CFA601A007B689B187A191278A0
:104020001A703B68013BFA689A4204DA0B23FB18CA
:104030001B780D2BDDD1FB68002B04DDFB687A6853
:10404000D31800221A70FB681800BD4604B0B0BD3A
:10405000000700206806002090B583B000AFFC1D6B
:10406000FFF7A7FF03002370FB1D1B781800FFF765
:1040700091FFFB1D1B781800BD4603B090BDB0B585
:1040800084B000AF78603960214B1B68002B02D1EF
:1040900001235B4237E00023FB600B23FB18002267
:1040A0001A701DE0C0461B4B1800FFF74BFF031EA4
:1040B000F9D00B257C19174B1800FFF718FF0300E8
:1040C00023702C003B191B781800FFF763FFFB6877
:1040D0005A1CFA601A007B689B183A1912781A70F9
:1040E0003B68013BFA689A4204DA0B23FB181B7801
:1040F0000D2BD7D1FB68002B04DDFB687A68D31841
:1041000000221A70FB681800BD4604B0B0BDC0465E
:10411000000700206806002080B582B000AF7860FC
:10412000FEE780B582B000AF786001235B421800E3
:10413000BD4602B080BD80B584B000AFF860B96004
:104140007A60044B0C221A6001235B421800BD46C2
:1041500004B080BD1407002080B500AF034B0B22D4
:104160001A6001235B421800BD4680BD1407002081
:1041700080B582B000AF786039603B6880229201E0
:104180005A6000231800BD4602B080BD80B500AF64
:1041900001231800BD4680BD80B582B000AF7860B5
:1041A0003960044B16221A6001235B421800BD4699
:1041B00002B080BD1407002080B582B000AF7860E7
:1041C0003960044B1F221A6001235B421800BD4670
:1041D00002B080BD1407002080B584B000AFF86045
:1041E000B9607A6000231800BD4604B080BD80B578
:1041F00082B000AF786039603B68802292015A60DB
:1042000000231800BD4602B080BD80B582B000AF6B
:10421000786001235B421800BD4602B080BD80B5C6
:1042200082B000AF7860044B02221A6001235B4227
:104230001800BD4602B080BD1407002080B582B0D2
:1042400000AF7860044B0A221A6001235B42180019
:10425000BD4602B080BDC0461407002080B582B0C4
:1042600000AF78607B68022B01D8012303E0044B88
:1042700009221A6000231800BD4602B080BDC04666
:104280001407002080B586B000AF7860124B7B61C8
:10429000124B3B61124B1B68002B02D1104B7A6909
:1042A0001A600F4B1B68FB600D4B1A687B68D318B4
:1042B0003A699A4205D20B4B0C221A6001235B42E9
:1042C00006E0074B1A687B68D218054B1A60FB683A
:1042D0001800BD4606B080BD680800200010002010
:1042E000100700201407002080B588B000AFF860E8
:1042F000B9607A600023BB61FB68002B22D10023E8
:10430000FB611AE0FFF755FE03001A0017217B1826
:104310001A70BB685A1CBA607A181278D2B21A7036
:10432000BB690133BB617B181B78DBB20A2B01D15F
:10433000BB690EE0FB690133FB61FA697B689A4255
:10434000E0DB05E0054B09221A6001235B4200E037
:10435000BB691800BD4608B080BDC04614070020E8
:1043600080B586B000AFF860B9607A60FB68013B49
:10437000012B11D800237B6109E0BB685A1CBA608D
:104380001B781800FFF706FE7B6901337B617A69B1
:104390007B689A42F1DB05E0054B09221A60012394
:1043A0005B4200E07B681800BD4606B080BDC04699
:1043B0001407002003460B437FD4002243088B429E
:1043C00074D303098B425FD3030A8B4244D3030B9C
:1043D0008B4228D3030C8B420DD3FF22090212BA61
:1043E000030C8B4202D31212090265D0030B8B42DD
:1043F00019D300E0090AC30B8B4201D3CB03C01AC7
:104400005241830B8B4201D38B03C01A5241430BA1
:104410008B4201D34B03C01A5241030B8B4201D391
:104420000B03C01A5241C30A8B4201D3CB02C01AFC
:104430005241830A8B4201D38B02C01A5241430A74
:104440008B4201D34B02C01A5241030A8B4201D363
:104450000B02C01A5241CDD2C3098B4201D3CB010A
:10446000C01A524183098B4201D38B01C01A5241B9
:1044700043098B4201D34B01C01A524103098B42BD
:1044800001D30B01C01A5241C3088B4201D3CB00A8
:10449000C01A524183088B4201D38B00C01A52418B
:1044A00043088B4201D34B00C01A5241411A00D23B
:1044B00001465241104670475DE0CA0F00D04942A4
:1044C000031000D34042534000229C4603098B4214
:1044D0002DD3030A8B4212D3FC22890112BA030A9C
:1044E0008B420CD3890192118B4208D3890192111E
:1044F0008B4204D389013AD0921100E08909C309A3
:104500008B4201D3CB01C01A524183098B4201D3A4
:104510008B01C01A524143098B4201D34B01C01A8F
:10452000524103098B4201D30B01C01A5241C30807
:104530008B4201D3CB00C01A524183088B4201D376
:104540008B00C01A5241D9D243088B4201D34B0091
:10455000C01A5241411A00D20146634652415B10D3
:10456000104601D34042002B00D5494270476346B4
:104570005B1000D3404201B5002000F005F802BDF9
:104580000029F8D016E770477047C046F0B51F0005
:10459000002316008BB09F4204DA802109067B18A5
:1045A0001F002D23129A149C1370202303229C4376
:1045B000462C07D02300453B59424B411099013A04
:1045C000CB18109309AB049308AB0393139B009291
:1045D0000293109B320001933B0000F0F5FC0500B4
:1045E000472C1BD1119BDB0711D5109BC3180793D8
:1045F000002200233000390003F01EFA002801D009
:10460000079B09933022099B07998B4220D32800EE
:10461000099B159A5B1B13600BB0F0BD109BC31870
:104620000793462CE4D10378302B0CD100220023D1
:104630003000390003F000FA002804D10123109A59
:104640009B1A139A1360139B079A1B68D318CEE723
:10465000591C09911A70D6E7F0B52B2385B00500D7
:104660000C1E027001DA4C4202336B70092C2EDDF5
:10467000AB1C009302ABDE1D20000A21FFF780FF78
:1046800037003031013E200031700A210194FFF7DC
:1046900091FE019B0400632BEEDCBA1E1300303444
:1046A0000099147002A8073098420BD8002390425A
:1046B00003D3093302AA9B18DB1B009AD018401BB6
:1046C00005B0F0BD1878013308700131EAE73023F6
:1046D000E418AB70281DEC70F1E70000F0B597B05E
:1046E0000C001C9D0A920B93099000F0BBFB036821
:1046F00018000F9300F0D2FB0023072210901493B0
:10470000237E0E93236811932B6807339343012272
:10471000C0CB2B607B005B080D930C96A664E7640E
:104720000C980D99A34B524205F0C0F8002831D1E6
:104730000C980D9901229F4B524203F08DF90028ED
:1047400028D1002200233000390003F07BF9002833
:1047500003D023002D2243331A70974B0C930E9BEA
:10476000472B01D8954B0C9303230025119A236105
:1047700001339A4322600B9B2100009309980A9B06
:1047800015AA00F0D7F9013000D098E0012040428E
:1047900017B0F0BD32003B003000390005F086F85C
:1047A00000280CD0002F03DA23002D2243331A7087
:1047B000834B0C930E9B472BD6D8824BD3E72022FA
:1047C0000E9D636895435A1C43D107336360802371
:1047D000119ADB00134300222360069214AA05926B
:1047E0000E9A0AA9049213AA039223225218029243
:1047F000019363683200009309983B00FFF7C6FEFF
:1048000013990C90472D2AD1CB1C02DB63688B4295
:1048100043DA0E9E023EF3B20E9320000E9A013947
:1048200050301391FFF718FF149A050013182361F5
:10483000012A02DC2268D20701D501332361232338
:104840000AAA9B5C002B96D023002D2243331A70BA
:1048500091E7472DBBD1002BB9D10133B6E70E9BB1
:10486000652BDAD90E9B662B19D16368002909DD07
:104870002161002B02D12268D2070BD501335B18CE
:10488000236107E0002B03D101222068104200D0F1
:104890009A1C22610025A165D1E767230E93149B22
:1048A0008B4205DC23682161DB07F3D54B1CE7E76E
:1048B0000122002901DC9218521A9B18E0E72268B5
:1048C000530508D423690C9A0A9909980B9DA847A7
:1048D000013029D15AE70E9B652B00D8D5E0A06C9A
:1048E000E16C0022002303F0A7F8002833D0012355
:1048F000354A0A9909980B9DA847013000D145E730
:10490000149E139BB34202DB2368DB070CD50B9D7F
:10491000109B0F9A0A990998A8470025013000D1E9
:1049200034E7731EAB420ADC23689B0700D5FFE027
:10493000159BE068984200DB2AE7180028E7220070
:1049400001230A9909980B9F1A32B847013000D108
:104950001CE70135E5E7139B834237DC01231A4A44
:104960000A9909980B9DA847013000D10EE7149EC3
:10497000139B334302D12368DB07D5D50B9D109BD6
:104980000F9A0A990998A8470025013000D1FDE641
:10499000139B5B42AB4201DC330094E7220001230E
:1049A0000A9909980B9F1A32B847013000D1EDE6F9
:1049B0000135EDE7FFFFEF7FB09B0008AC9B0008DF
:1049C000B89B0008B49B0008BC9B0008149EA76D10
:1049D000B74200DD3700002F2FDCFB430025DB173B
:1049E0003B400E93A76D0E9BFB1AAB422EDC139B34
:1049F0009E4237DC2368DB0734D4139DF31B751B01
:104A00009D4200DD1D00002D35DCEB430027DB1748
:104A10001D400C95139B0C9AF31A9B1ABB4200DCA9
:104A200082E7220001230A9909980B9D1A32A847B0
:104A3000013000D1AAE60137ECE73B000C9A0A9955
:104A400009980B9DA8470130C7D19FE6220001239A
:104A50000A9909980B9F1A32B847013000D195E6A0
:104A60000135BFE7109B0F9A0A9909980B9DA8473B
:104A70000130C2D18AE60C9B0A99DA1909982B00F9
:104A80000B9FB8470130C0D180E6149E012E02DC96
:104A900001231A4239D001230C9A0A9909980B9FD5
:104AA000B847013000D171E6109B0F9A0A99099816
:104AB0000B9FB847013000D168E6A06CE16C731E13
:104AC0000E930022002302F0B7FF00281BD10C9A9E
:104AD0000E9B01320A9909980B9EB04701300ED106
:104AE00054E6220001230A9909980B9E1A32B04716
:104AF000013000D14AE601370E9B9F42F1DB2200D4
:104B00002B005032E0E60027F6E70C9AE2E722009D
:104B100001230A9909980B9E1932B047013000D140
:104B200034E60135E368159A9B1AAB42EFDCFFE6E9
:104B30000025F7E7F7B5160001938A680B690C00AA
:104B40000090934200DA130022003360433212785F
:104B5000002A01D00133336023689B0602D53368F5
:104B6000023333602268062315001D401A4227D005
:104B7000230043331B785A1E93412268920630D497
:104B8000220001990098089D4332A847013025D0A2
:104B90000622236800251340042B05D13368E568FD
:104BA000ED1AEB43DB171D40A3682269934201DD38
:104BB0009B1AED180026B54220D1002010E00135E7
:104BC000E36832689B1AAB42D2DD220001230199CF
:104BD0000098089F1932B8470130F0D101204042B7
:104BE000FEBD3020E1184331087021005A1C4531C8
:104BF0000978A218433202331170C1E72200012361
:104C000001990098089F1A32B8470130E6D0013662
:104C1000D1E70000F0B58BB00793059006920A7EAD
:104C20000C004331109B0391782A09D8622A0BD8D3
:104C3000002A00D1BAE07A490491582A00D18EE0C6
:104C4000250042352A7022E0100063381528F7D875
:104C500002F04EFE16001F00F6FFF6FFF6FFF6FF0D
:104C60001F00F6FFF6FFF6FFF6FF9F0035007E00FF
:104C7000F6FFF6FFB000F6FF3500F6FFF6FF820004
:104C800025001A684235111D196013682B70012325
:104C90009EE01A682068111D1960050601D5166886
:104CA00003E04006FBD50023D65E002E03DA2D2359
:104CB000039A764213705A4B0A27049313E01A683A
:104CC000216840CA080602D4490600D5B6B21A6067
:104CD000237E534A0A2704926F2B00D1023F230000
:104CE000002243331A706368A360002B06DB0421A3
:104CF0002268039D8A43226033430CD0039D300019
:104D0000390002F085FE049B013D5B5C2B70330093
:104D100006009F42F3D9082F09D12368DB0706D587
:104D2000626823699A4202DC3023013D2B70039BA9
:104D30005B1B2361079B210000930598069B09AA32
:104D4000FFF7F8FE013048D1012040420BB0F0BD22
:104D5000202221680A4322607822324904912100EE
:104D600045310A701968226840C9100602D45006FD
:104D700000D5B6B21960D30702D5202313432360B0
:104D8000002E01D01027AAE7202223689343236036
:104D9000F8E71A682568101D6169186013682E0607
:104DA00001D5196002E06D06FBD519800023039D33
:104DB0002361BFE71A68111D1960156800212800DA
:104DC000626800F057F8002801D0401B60606368FB
:104DD00023610023039A1370ACE72A002369069924
:104DE0000598079DA8470130AED023689B0715D4CE
:104DF000099BE0689842A9DA1800A7E7220001237E
:104E000006990598079E1932B04701309CD00135AC
:104E1000E368099A9B1AAB42F0DCE9E70025F7E763
:104E2000BE9B0008CF9B00080EB403B503AB04CBB8
:104E30008168019301F0A0FC02B008BC03B01847E0
:104E40000FB407B5054904AB086804CB816801932A
:104E500001F092FC03B008BC04B018471000002019
:104E6000F0307047004870475C01002000487047F0
:104E70005C010020C9B28218904201D10020704725
:104E800003788B42FBD00130F6E7002310B59A423D
:104E900000D110BDCC5CC4540133F8E70023C25CE0
:104EA0000133002AFBD1581E7047F0B502690F6923
:104EB00087B006000B0000200291BA426DDB013F73
:104EC000BC00143305931B190393330014331C19CE
:104ED000019323680493039B04981D6801352900FE
:104EE00002F010FD049B0090AB422BD3059B019D6B
:104EF0009C46002305930493624608CA286894469A
:104F0000009A99B25143059A1B0C8918009A534391
:104F10000A0C9B181A0C89B2059282B2521A049993
:104F2000000C52189BB21114C31A5B18191492B2D8
:104F30001B04134308C5039B04916345DCD223681B
:104F4000002B30D03000029901F0CEF9002823DB8D
:104F500034000025009B029A01330093143414326C
:104F6000236801CA02936B461B8981B2591A029BBE
:104F70004919000C1B0C1B1A08141B181D1489B2AC
:104F80001B040B4308C4039B9342E9D2019ABB0064
:104F9000D3181A68002A10D0009807B0F0BD236813
:104FA000002B04D1013F019B043CA342F7D337619E
:104FB000C8E71A68002A04D1013F019A043B9A42CB
:104FC000F7D33761E8E70000F0B514001D00C269AF
:104FD0009DB010941195259F0290002A10D11020A9
:104FE00000F0D4FD029B021ED86104D1EF21A34B37
:104FF000A34802F047F90023436083600360C36065
:10500000116800290BD001235268029893404A602E
:105010008B6000F0C3FE0022029BDB691A602E1E2B
:1050200017DA01236E00DE403B601196954B954ADE
:105030003340934218D1944B249A3603360B1360B5
:10504000264301D100F073FD269B002B04D18F4B2A
:1050500020E000233B60E9E78C4B05938C4B269ABC
:10506000136005981DB0F0BD109A119B0C920D9322
:105070000C980D990022002302F0DEFC071E0BD0D5
:105080000123249A1360269B002B02D0814B269A81
:105090001360814B0593E4E71AAB01931BAB0093BC
:1050A00002980C9A0D9B01F047FA1A9B0490310D5F
:1050B0000593B94279D00D9B19971A03774B120BC0
:1050C0001343774A8E180C980D9919000022754BDE
:1050D00003F0E2FF744A754B03F026FD744A754BEA
:1050E00002F0D8FC040030000D0004F037FC724AD6
:1050F000724B03F019FD02000B002000290002F0A2
:10510000C9FC04000D0004F0F1FB00220390002311
:105110002000290002F096FC00280BD0039804F030
:105120001DFC2B00220002F087FC43425841039BE8
:105130001B1A039301231393039B162B0FD80C9870
:105140000D99039A5E4BD2009B180CCB02F07AFCAF
:10515000002846D0039B013B039300231393059B38
:105160009E1B00230693731E03D50122931B0693F7
:1051700000230A93039B002B35DB0A9B039A9B18A1
:105180000A93002312920E93229B0124092B5FD8CD
:10519000052B02DD0024043B2293229B981E03284A
:1051A00060D802F09BFB51533529059B1B9FDF19EB
:1051B000444BFA18202A0FDD40239B1A9E40424B95
:1051C0003000FB18DC40204304F0FCFB01223F4B85
:1051D0007E1ECB18199278E7202320009B1A984056
:1051E000F2E71390BBE7069B039A9B1A0693534280
:1051F0000E9300231293C7E70123239A0F93039B77
:105200009B180B9301330893002B08DC012306E065
:1052100001230F93239B002B28DD0B930893029A05
:105220000021D0690422150014359D4223D9416024
:10523000029800F071FD059000284BD1B021244B5D
:105240000F48059AFF31D4E60023E2E70023D4E7B4
:1052500000230F942293013B00220B930893239287
:105260001333DCE701230F93023BF5E701230B9394
:1052700008932393D3E701315200D4E7ED9B000854
:10528000049C00080000F07F0F270000E99B000845
:10529000EC9B0008BD9B0008BC9B00080000F03F91
:1052A00001FCFFFF0000F83F61436F63A787D23F17
:1052B000B3C8608B288AC63FFB799F501344D33F05
:1052C000809D00083204000012040000000010FE5F
:1052D0005F9C0008029B059ADB691A60089B0E2BF5
:1052E00000D981E0002C00D17EE0039B002B00DC84
:1052F000CDE00F21039ACD4B0A40D2009B18C0CBC2
:10530000039B02251C110C9A0D9B14921593039B71
:10531000DB050AD5C64B0C401A6A5B6A0C980D99DE
:1053200002F0CCFF149015910135C14B0993002C6C
:1053300000D09CE01498159932003B0002F0BEFFAB
:1053400006000F00139B002B00D1CAE000223000A2
:105350003900B84B02F076FB002800D1C1E0089B71
:10536000002B00D1BDE00B9B002B3DDD039B3000EB
:10537000013B390009930022AF4B03F0D5FB060037
:105380000F000B9C0135280004F0E8FA32003B00C6
:1053900003F0CAFB0022A94B02F07CFBA84B14903F
:1053A0001591CB181593149A159B16921793002CF0
:1053B00000D09AE0002230003900A24B03F06CFECE
:1053C000169A179B06000F0002F050FBA04200D077
:1053D000D1E28020159900060B18149A300039008C
:1053E00002F030FBA04225D11B9B002B00DA93E199
:1053F000039A0E2A00DD8FE18C4BD2009B1818CB4C
:1054000006930794239B002B00DB1FE1089B002BD6
:1054100000DD1BE10ED1069807990022894B03F0AD
:1054200083FB02000B000C980D9902F015FB00287D
:1054300000D1A3E200263700239B059CDB430993A0
:10544000039700273100029800F0A8FC039B002B73
:1054500000D1E0E0002F05D09F4203D03900029830
:1054600000F09CFC0399029800F098FCD3E0012323
:105470001C4208D0ED18099B30000CCB390003F01A
:1054800053FB06000F00099B641008334EE7039B93
:1054900002250C9E0D9F002B00D153E70F225C428A
:1054A0002240624BD2009B1830000CCB390003F035
:1054B0003BFB06000F005E4B24110993002C00D12A
:1054C00040E701231C4208D0ED18099B30000CCBAB
:1054D000390003F029FB06000F00099B6410083314
:1054E000EBE7039B089C09934DE7504B621ED200EB
:1054F0009B1803CB059BE31818930F9B002B49D0F7
:1055000002000B000020504902F0D8FE169A179BAB
:1055100003F0C2FD059B14901591169339003000DD
:1055200004F0E4F9050004F019FA02000B00300061
:10553000390003F0B1FD169B30355C1C1D70149AC8
:10554000159B06000F0002F07DFA002863D132009F
:105550003B000020374903F09FFD149A159B02F091
:1055600071FA002800D0BAE0189B9C4200D13BE7BA
:10557000149815990022304B03F0D6FA00221490AB
:1055800015912D4B3000390003F0CEFA1694060029
:105590000F00C3E7169A179B03F0C6FA14901591F3
:1055A000059C3900300004F0A1F9050004F0D6F99B
:1055B0000B0002003900300003F06EFD3035189BFF
:1055C0002570013406000F00A34227D114981599C5
:1055D00000221D4B02F05EFA02000B003000390081
:1055E000189C02F043FA002800D078E0149A159B2A
:1055F0000020154903F050FD02000B003000390077
:1056000002F020FA002800D1EEE62300013C2278C7
:10561000302AFAD01C00099B03934EE00022064B6F
:1056200003F082FA06000F00BBE7C046809D000829
:10563000589D00080000F03F0000244000001C407E
:105640000000C0FC000014400000E03F089F059EE1
:10565000013FBF19069A079B0C980D9902F02EFE88
:1056600004F044F9050004F079F9069A079B03F069
:105670005BFA02000B000C980D9903F00DFD2A0057
:1056800033003032013634001A709F4237D10200A5
:105690000B0002F0FFF9069A079B06000F0002F0CC
:1056A000E5F9002819D1069A079B3000390002F06D
:1056B000C3F9002801D0ED070FD40499029800F037
:1056C0006DFB00232370039B249A01331360269BF8
:1056D000002B00D1C5E41C60C3E4039B09932300A5
:1056E0001C00013B1A78392A06D1059A9A42F7D153
:1056F000099A01320992302201321A708BE7002296
:10570000C54B03F011FA002200230C900D9102F01A
:1057100093F900289ED0D0E70F9F0E9D069C002F86
:1057200014D0229A012A00DDE3E0199A002A00D160
:10573000D9E0BA4A9B18069A0121D21806920A9A11
:105740000298D3180A9300F031FC0700002C0ED009
:105750000A9B002B0BDD0A9A2300944200DD130004
:10576000069AE41AD21A06920A9AD31A0A930E9B40
:10577000002B21D00F9B002B00D1D2E0049E002DE6
:1057800014D039002A00029800F0E0FC049A0100CD
:105790000700029800F020FC06000499029800F02F
:1057A000FDFA0E9B04965B1B0E9305D031000E9AFA
:1057B000029800F0CBFC04900121029800F0F6FB67
:1057C000129B0600002B00D1BBE11A0001000298D9
:1057D00000F0BCFC229B06000025012B16DC0025F6
:1057E000109BAB420ED1119B1B03AB420AD18C4BD9
:1057F000119A134206D0069B0135013306930A9B8A
:1058000001330A93129B0120002B08D03369033324
:105810009B00F318586800F077FB2023181A0A9BA6
:105820001F22181803001340104200D180E01B2BE8
:105830007ADC033AD31A069AE418D21806920A9A26
:10584000D3180A93069B002B05DD1A0004990298D1
:1058500000F0DEFC04900A9B002B05DD31001A00ED
:10586000029800F0D5FC0600139B002B62D031009B
:10587000049800F039FD00285CDA039B0A22013B02
:10588000099304990023029800F0AEFA0F9B04904C
:10589000002B00D15CE1002339000A22029800F0BD
:1058A000A3FA0B9B0700002B4EDC229B022B47DD4B
:1058B0000B9B002B00D0BFE5310005220B9B02980B
:1058C00000F092FA06000100049800F00DFD002897
:1058D00000DCB1E5059B059A5C1C31231370099B24
:1058E00001330993ACE536231A9A0E9D9B1A069C48
:1058F00021E7089B5D1E0E9BAB4208DB5D1B089BEE
:10590000002BF4DA069B089A9C1A002313E70E9BDF
:10591000129AEB1AD31812930E95069C0025089B39
:1059200009E70E9A049943E71C2B8BD02022D31A47
:105930001C3380E7039B0993089B0B93002BB4DD7A
:105940000F9B002B00D107E1002C05DD3900220060
:10595000029800F05DFC07000397002D20D07968C5
:10596000029800F0D9F9041E0CD122002D4B2E48CC
:105970002E49FFF73EFB26003700ABE7039B089E4E
:105980000993F9E739003A690C31023292000C3080
:10599000FFF77BFA01222100029800F039FC039006
:1059A000059B0B9A0693013B9B1801220E93109BBB
:1059B00013400C9331000498FFF777FA3900050083
:1059C0000A90049800F090FC039A0B903100029822
:1059D00000F0A4FC0122C368040030350892002BBB
:1059E00004D10100049800F07FFC08902100029887
:1059F00000F0D4F9069B229A5C1C089B13430C9A76
:105A0000134315D1392D2ED00B9B002B01DD0A9DA0
:105A10003135069B1D7015E500002440330400005D
:105A20000000F07F5F9C0008049C0008EF0200006B
:105A30000B9B002B04DB229A13430C9A13431DD1BA
:105A4000089B002BE5DD04990122029800F0E0FBA1
:105A50003100049000F048FC002802DCD9D1EB07AB
:105A6000D7D5392DD3D1069A157023001C00013BE0
:105A70001A78392A51D001321A70E3E4089B002BBE
:105A800003DD392DEFD00135C3E7069B069A1D7063
:105A90000E9B93422CD000230A220499029800F016
:105AA000A3F9039B04909F4209D1390000230A22E5
:105AB000029800F099F90700039006947AE73900FC
:105AC00000230A22029800F08FF9002307000A221F
:105AD0000399029800F088F90390EEE700240B9BED
